:05FFFB00FAFE5AA5AF5B
:0A1AAF0075E50775E669758E1022D3
:10181A0075F9F075F1FF75803FE4F5FA75F2FF7519
:10182A0090FFF59175FBFF75F3FF75A0FFF5FC7549
:10183A00F4FF75B0FCF5FD75F5FF75E8FF75FEFF61
:0E184A0075F6FF75F8FFF59EF59F759DFF2260
:1018CA00121AAFC2AF7F887E137D007C00121858AF
:1018DA00E4F5C0F5A8F5B8F59A12181A1219CD7FD1
:1018EA00147E007D007C00121891121A23121A3CF1
:0618FA0012170ED2AF220E
:101A0A001218CAE490000FF01213DD1219AB120378
:091A1A00821217D912170E80EF99
:0A151A0042001D000042001F000007
:101A3C0075C5FF75C4F675C3FF75C2F643A880C2A1
:081A4C00C443C1A030C4FD2217
:101858008F0B8E0A8D098C08E4FFFEFDFCAB0BAAEA
:101868000AA909A808D312034B401D121A3CE50B1C
:1018780024FFF50BE50A34FFF50AE50934FFF509FD
:08188800E50834FFF50880D0EB
:011890002235
:10170E0075C5D875C4F075C3D875C2F043A880C22C
:10171E00C443C1A030C4FD90001DE07002A3E06080
:10172E000E90001EE024FFF090001DE034FFF090BC
:10173E000004E0B4010E900020E004F0700690006A
:05174E001FE004F02281
:101891008F0B8E0A8D098C08E4FFFEFDFCAB0BAAB1
:1018A1000AA909A808D312034B401D12170EE50B14
:1018B10024FFF50BE50A34FFF50AE50934FFF509C4
:0818C100E50834FFF50880D0B2
:0118C90022FC
:101A540053D4FE75D2D875D3A075D47675D51475C4
:061A6400D13C43D4012235
:101A230053D4FE75D2D875D3A075D45675D5147515
:091A3300D110759B0143D401227E
:10123C00E5D520E0030212DE53D5FEAFB7900023B4
:10124C00E4F0A3EFF0E0F8E4F0E8900023F0AFB6A0
:10125C00A3E02FF0900023E03400F0900001E0B404
:10126C000134900002E0FEA3E0FF900024E02FFF89
:10127C00900023E03ECF2401FDE43FFCE412020683
:10128C007B907A317977783E1200FB12023F900006
:10129C0023EEF0A3EFF0900001E0B40235900002D1
:1012AC00E0FEA3E0FFC3900024E09FFF900023E04A
:1012BC009ECF2401FDE43FFCE41202067B907A31C0
:1012CC007977783E1200FB12023F900023EEF0A3D8
:0312DC00EFF0220E
:1015D000E5D530E04D53D5FEAFB7900021E4F0A340
:1015E000EFF0E0F8E4F0E8900021F0AFB6A3E02FD0
:1015F000F0900021E03400F0E0FCA3E0FDE41202F2
:10160000067B087A7379EA783C1200FB7BDD7A89E5
:1016100079B8783F12000A12023F900021EEF0A341
:03162000EFF022C6
:1019AB00121A237F017E007D007C00121891121207
:1019BB003C121A547F017E007D007C0012189102AC
:0219CB0015D035
:1010D000E4F55FF560900023E0FEA3E0FFE5602506
:1010E000E02421F8A60608A6070560E56070020561
:1010F0005F641F455F70DEE4F563F564E4F561F558
:1011000062C3741F9564FFE49563FEC3E5629FE5C7
:10111000619E5050AF62EF25E02423F8E6FC08E61C
:10112000FDEF25E02421F8E6FE08E6FFD39DEE9CC6
:1011300040288E658F66E56225E02423F8E6FE08E8
:10114000E6FFAD62ED25E02421F8A60608A607ED2E
:1011500025E02423F8A66508A6660562E56270A16D
:101160000561809D0564E56470020563641E456346
:10117000708AC3E5409498E53F943A4004E4FEFF4A
:0511800022AE3FAF406C
:011185002247
:10118600E4F575F576900021E0FEA3E0FFE576250F
:10119600E02467F8A60608A6070576E57670020538
:1011A600756407457570DEE4F579F57AE4F577F54B
:1011B60078C37407957AFFE49579FEC3E5789FE5D1
:1011C600779E5050AF78EF25E02469F8E6FC08E6F4
:1011D600FDEF25E02467F8E6FE08E6FFD39DEE9CCA
:1011E60040288E7B8F7CE57825E02469F8E6FE08AA
:1011F600E6FFAD78ED25E02467F8A60608A607ED1C
:1012060025E02469F8A67B08A67C0578E57870A118
:101216000577809D057AE57A700205796406457939
:10122600708AD3E56E9405E56D94005004E4FEFFE4
:0512360022AE6DAF6E59
:01123B002290
:1019CD00121986759F00539E0375B10043B10253E2
:0F19DD00B1F375B20043B20443B21843B1012213
:10198600750FF075100A0510E5107002050FE4FFDB
:10199600851082850F83E4F00510E5107002050FAF
:0419A6000FBF12EC71
:0119AA00221A
:1019EC00750FF075100AE4FF851082850F8374FF64
:0D19FC00F00510E5107002050F0FBF12EB93
:011A090022BA
:10096E00750FF075100A74042510F510E4350FF5A7
:10097E000FEF7014851082850F837405F0E5101546
:10098E00107002150F020A6BBF011A851082850FB7
:10099E00837405F0E51015107002150F8510828511
:1009AE000F83E4F022BF021B851082850F8374062D
:1009BE00F0E51015107002150F851082850F8374E7
:1009CE000BF022BF031B851082850F837407F0E5A1
:1009DE001015107002150F851082850F837409F0A3
:1009EE0022BF041B851082850F837407F0E5101556
:1009FE00107002150F851082850F837404F022BFCC
:100A0E000513851082850F837403F0E510151070A1
:100A1E006A150F8066BF0613851082850F837403D7
:100A2E00F0E51015107002150F8032BF071B8510F0
:100A3E0082850F837405F0E51015107002150F8571
:100A4E001082850F837408F022BF081B85108285E3
:100A5E000F837407F0E51015107002150F851082C4
:100A6E00850F83740FF022BF091A851082850F83BC
:100A7E007407F0E51015107002150F851082850FA2
:050A8E0083740DF0224D
:0608430075F00A84AFF01D
:10084900750FF075100A74062510F510E4350FF5CB
:100859000FEF7014851082850F837405F0E510156C
:10086900107002150F020946BF011A851082850F03
:10087900837405F0E51015107002150F8510828537
:100889000F83E4F022BF021B851082850F83740653
:10089900F0E51015107002150F851082850F83740D
:1008A9000BF022BF031B851082850F837407F0E5C7
:1008B9001015107002150F851082850F837409F0C9
:1008C90022BF041B851082850F837407F0E510157C
:1008D900107002150F851082850F837404F022BFF2
:1008E9000513851082850F837403F0E510151070C8
:1008F9006A150F8066BF0613851082850F837403FE
:10090900F0E51015107002150F8032BF071B851016
:1009190082850F837405F0E51015107002150F8597
:100929001082850F837408F022BF081B8510828509
:100939000F837407F0E51015107002150F851082EA
:10094900850F83740FF022BF091A851082850F83E2
:100959007407F0E51015107002150F851082850FC8
:0509690083740DF02273
:0E1623007C001202D27C007D0A1202D2AF05BA
:10163100750FF075100A740B2510F510E4350FF5D0
:101641000FBF0109851082F5837403F022BF020ADE
:10165100851082850F83740DF022BF030A851082E5
:10166100850F837407F022EF7007851082850F8341
:02167100F02265
:100A9300E0FEA3E0FF7C007D0A1202D27C007D0A07
:050AA3001202D2AF05B4
:100AA800750FF075100A740A2510F510E4350FF566
:100AB8000FEF7014851082850F83740FF0E5101501
:100AC800107018150F020B79BF0113851082850F5E
:100AD80083E4F0E51015107002150F020B79BF02C0
:100AE8001B851082850F83740DF0E51015107002B8
:100AF800150F851082850F837403F022BF031485B8
:100B08001082850F837409F0E51015107019150F00
:100B1800020BADBF0413851082850F837402F0E5C4
:100B28001015107002150F807CBF05138510828583
:100B38000F83740BF0E51015107018150F8014BF93
:100B4800061B851082850F83740FF0E51015107051
:100B580002150F851082850F837406F022BF071BCC
:100B6800851082850F837401F0E510151070021549
:100B78000F851082850F837405F022BF0813851036
:100B880082850F83740FF0E51015107002150F8021
:100B980014BF091A851082850F83740BF0E51015B0
:0F0BA800107002150F851082850F837407F022DD
:0E0BB700E0FEA3E0FF7C007D0A1202D2AF0533
:100BC500750FF075100A74082510F510E4350FF54A
:100BD5000FEF7014851082850F83740FF0E51015E3
:100BE500107018150F020C96BF0113851082850F22
:100BF50083E4F0E51015107002150F020C96BF0284
:100C05001B851082850F83740DF0E5101510700299
:100C1500150F851082850F837403F022BF03148599
:100C25001082850F837409F0E51015107019150FE2
:100C3500020CCABF0413851082850F837402F0E588
:100C45001015107002150F807CBF05138510828565
:100C55000F83740BF0E51015107018150F8014BF75
:100C6500061B851082850F83740FF0E51015107033
:100C750002150F851082850F837406F022BF071BAE
:100C8500851082850F837401F0E51015107002152B
:100C95000F851082850F837405F022BF0813851018
:100CA50082850F83740FF0E51015107002150F8003
:100CB50014BF091A851082850F83740BF0E5101592
:0F0CC500107002150F851082850F837407F022BF
:0E1673007C001202D27C007D0A1202D2AF056A
:10168100750FF075100A74102510F510E4350FF57B
:101691000FBF0109851082F5837403F022BF020A8E
:1016A100851082850F83740DF022BF030A85108295
:1016B100850F837407F022EF7007851082850F83F1
:0216C100F02215
:0C0CD4001202D27C007D0A1202D2AF0591
:100CE000750FF075100A740F2510F510E4350FF527
:100CF0000FEF7014851082850F83740FF0E51015C7
:100D0000107018150F020DB1BF0113851082850FE9
:100D100083E4F0E51015107002150F020DB1BF024B
:100D20001B851082850F83740DF0E510151070027D
:100D3000150F851082850F837403F022BF0314857D
:100D40001082850F837409F0E51015107019150FC6
:100D5000020DE5BF0413851082850F837402F0E550
:100D60001015107002150F807CBF05138510828549
:100D70000F83740BF0E51015107018150F8014BF59
:100D8000061B851082850F83740FF0E51015107017
:100D900002150F851082850F837406F022BF071B92
:100DA000851082850F837401F0E51015107002150F
:100DB0000F851082850F837405F022BF08138510FC
:100DC00082850F83740FF0E51015107002150F80E7
:100DD00014BF091A851082850F83740BF0E5101576
:0F0DE000107002150F851082850F837407F022A3
:0A0DEF00900017E075F00A84AFF0E1
:100DF900750FF075100A740D2510F510E4350FF50F
:100E09000FEF7014851082850F83740FF0E51015AC
:100E1900107018150F020ECABF0113851082850FB5
:100E290083E4F0E51015107002150F020ECABF0217
:100E39001B851082850F83740DF0E5101510700263
:100E4900150F851082850F837403F022BF03148563
:100E59001082850F837409F0E51015107019150FAC
:100E6900020EFEBF0413851082850F837402F0E51C
:100E79001015107002150F807CBF0513851082852F
:100E89000F83740BF0E51015107018150F8014BF3F
:100E9900061B851082850F83740FF0E510151070FD
:100EA90002150F851082850F837406F022BF071B78
:100EB900851082850F837401F0E5101510700215F5
:100EC9000F851082850F837405F022BF08138510E2
:100ED90082850F83740FF0E51015107002150F80CD
:100EE90014BF091A851082850F83740BF0E510155C
:0F0EF900107002150F851082850F837407F02289
:101753001210D07C007D0A1202D2AF05120DF912CD
:1017630010D07C007D0A120CD41210D07D641216A6
:1017730073121186120BBC121186120A981211866B
:101783007C007D641202D27C007D0A1202D2AF0576
:031793000216310A
:10195F00900011120BB7900011120A93900011E032
:10196F00FEA3E0FF7C007D641202D27C007D0A1290
:07197F0002D2AF0502163190
:10193400900007E0120843900007E0FFC3940A40B8
:1019440019EF75F00A84120843900007E075F064FB
:0B1954008475F00A84AFF012096E22C7
:1016C30090001FE0FEA3E0FF7C007D0A1202C07CB5
:1016D300037DE81202D27C007D0A1202D2AF05120A
:1016E300084990001FE0FEA3E0FF7C007D0A120280
:1016F300C07C037DE81202D27C007D0A1202D27CF8
:0B170300007D0A1202D2AF0502096E41
:10144F00900009E0FEA3E0FF7C007D0A1202C07D40
:10145F00641202D27C007D0A1202D2AF05120DF97E
:10146F00900009E0FEA3E0FF7C007D0A1202C07C21
:10147F00037DE8120CD4900009E0FEA3E0FF7C008E
:10148F007D0A1202C07C037DE81202D27D0A121679
:10149F0073750FF075100A740E2510F510E4350FE3
:0C14AF00F50F851082F583E04408F02260
:10136B00900010E0FF7019750FF075100A741125BD
:10137B0010F510E4350FF50F851082F5837408F026
:10138B00EFB4012390000DE07002A3E07019750F0C
:10139B00F075100A74112510F510E4350FF50F8553
:1013AB001082F5837409F0900010E0B401239000D3
:1013BB000DE07002A3E06019750FF075100A74113F
:1013CB002510F510E4350FF50F851082F583740D9C
:0213DB00F022FE
:1013DD00900018E0FFB40115900019E0B4010E75EE
:1013ED000FF075100A851082850F83E4F0EFB401BC
:1013FD0016900019E0B4020F750FF075100A8510E4
:10140D0082850F837404F0900018E0B402169000EA
:10141D0019E0B4010F750FF075100A851082850F54
:10142D00837401F0900018E0B40216900019E0B436
:10143D00020F750FF075100A851082850F837405E4
:02144D00F0228B
:10100100750FF075100A740F2510F510E4350FF502
:101011000F851082F583740FF0E51015107002151D
:101021000F851082850F837402F0900000E024FE8A
:1010310070030210B41470030210BF24FE70030287
:1010410010CA240460030210CF7F01120DF9900031
:1010510009E0FEA3E0FF7C007D0A1202C07D64125C
:1010610002D2120BBC900009E0FEA3E0FF7C007DE0
:101071000A1202C07C037DE8120A9C900009E0FE7E
:10108100A3E0FF7C007D0A1202C07C037DE812020E
:10109100D27D0A121623750FF075100A74092510F6
:1010A100F510E4350FF50F851082F583E04408F063
:1010B100D2FF227F02120DF912195FD2FE227F03A5
:0F10C100120DF9121934D2FD227F05120DF922FA
:100F0800900017E0FF24FE6039147003020FAE143E
:100F18007003020FC3147003020FE4240460030279
:100F28001000EF120DF3900019E0B401057F0512CF
:100F38000BC5900019E0640260030210007F0102F3
:100F48000BC5120DEF900018E0B4012D7F06120BAF
:100F5800C5750FF075100A740A2510F510E4350FE1
:100F6800F50F851082F583E4F0E510151070021571
:100F78000F851082850F83E4F0900018E0640270FA
:100F8800777F03120AA87F07120BC5750FF075103B
:100F98000A74092510F510E4350FF50F851082F550
:100FA80083E04408F022120DEF90001CE075F00A6F
:100FB80084AFF0120BC590001C8013120DEF900047
:100FC8001BE075F00A84AFF0120BC590001BE075AA
:100FD800F00A8475F00A84AFF0020AA8120DEF90A7
:100FE8000015120BB7900015120A93900015E0FE39
:090FF800A3E0FF7D641216232220
:101A6A00900010E0600612144F12195F900013E004
:061A7A0060031219342282
:1017D900900025E0B4070050379017E9F8282873DE
:1017E9000217FE02180102180402180D021810024D
:1017F90018130218160219EC021986121753121639
:10180900C302136B021001020F08021934121A6A7B
:0118190022AC
:0D1A9500300005C2F9C2F822D2F9D2F822C1
:0D1AA200300005C2A3C2A222D2A3D2A2220C
:101A8000300009C2F9C2F8C2A3C2A222D2F9D2F828
:051A9000D2A3D2A22246
:101524004100040041000000410008004100100097
:101534004100130041000100420002000042000982
:0C154400000042000B000042000D0000FF
:10179600900023E0FEA3E0FFE4FCFD7B607AEAF91B
:1017A600F8C312033590000150167401F09000231F
:1017B600E0FEA3E0FFC3E49FFFE49E900002800EDC
:1017C6007402F0900023E0FFA3E0900002CFF0A3A4
:0317D600EFF0220F
:1003820090000FE012035C03AE0003C601040302F7
:10039200041D0305470405AA05061006066908069A
:1003A2008B0906B11006E911000006F2900001E087
:1003B2007003121796900001E060FA900025740114
:1003C200F00206AAE490001FF0A3F0900007F0905C
:1003D2000011F0A3F0900010F0900013F090000DC7
:1003E200F0A3F090000BF0A3F0900009F0A3F090BE
:1003F20000257402F0D200121A9590000F7402F0D8
:10040200221210D0EF4E60030206F2D286D28790FB
:10041200000404F090000F7403F02290001FE0FF2C
:10042200A3E0900009CFF0A3EFF01210D0C3EF9435
:100432002CEE9401502690001FE0FEA3E0FF7C000A
:100442007D0A1202C07C037DE81202D290001CE0F9
:10045200FDD3EF9DEE940050030206EF7F507E0025
:100462007D007C001218911210D0C3EF942CEE94F0
:1004720001502690001FE0FEA3E0FF7C007D0A12DF
:1004820002C07C037DE81202D290001CE0FDD3EF93
:100492009DEE940050030206EF121186900011EEB9
:1004A200F0A3EFF0E4900004F0C28790001004F093
:1004B20090001FE0FEA3E0FF7C007D0A1202C07CD8
:1004C200037DE81202D290001CE0FD7C00C3EF9D88
:1004D200EE9C4025EFB50530ECB5062C90001FE0F0
:1004E200FEA3E0FF7D0A1202C07D641202D27C00EC
:1004F2007D0A1202D2ED4C700F90000F7404F0E4EA
:1005020090001FF0A3F08012C2869000257401F0C3
:10051200900000F090000F7408F0900015E0FEA328
:10052200E0FFD3900012E09F900011E09E4076C25F
:10053200869000257401F090000004F090000F7482
:1005420008F00206EF9000047401F090001FE0FF33
:10055200A3E090000BCFF0A3EFF01210D0C3EF9402
:1005620018EE94015014C2869000007405F09000B9
:10057200257401F090000F7408F0C390000CE09411
:10058200B890000BE0940B401C90000F7405F01221
:1005920010D0900005EEF0A3EFF0E490001FF0A35E
:1005A200F0900004F00206EF9000047401F0900055
:1005B2001FE0FFA3E090000DCFF0A3EFF01210D0E8
:1005C200C3900006E09F900005E09E400C1210D000
:1005D200900005A3E0C39FA3F0C390000EE09470C7
:1005E20090000DE09417500C90001BE0FF90000764
:1005F200E09F40179000137401F0E490001FF0A3F5
:10060200F0900004F090000F7406F00206EF121052
:10061200D0C3900006E09F900005E09E400C1210AF
:10062200D0900005A3E0C39FA3F09000137401F0E3
:100632009000257405F0C28690001BE0FF90000731
:10064200E0D39F500B12198690000F7411F08014A2
:10065200C2869000007403F09000257401F09000AF
:100662000F7408F00206EFC200121A95D200121A95
:10067200A29000257403F0E4900004F090000804B6
:10068200F090000F7410F08064D200121A80900073
:10069200257404F01215751206F3900017E07050DD
:1006A200C200121A8012198690000F7410F02212E2
:1006B20014BBBF011F900008E0600EE4F09000251B
:1006C20004F090000F7411F0229000257401F09054
:1006D200000FF0221214BBBF02169000257401F025
:1006E20090000F7409F0229000257406F012190090
:0106F20022E5
:101550004100140041001700410019014100180129
:1015600041001B0341001C0A420015018F010C01C0
:04157000020D000068
:1014BB00E50C60162092137F027E007D007C0012EB
:1014CB001891209227E4F50C802230921FE50C70C6
:1014DB001B750C01C3E50E9464E50D94005008E4F4
:1014EB00F50DF50E7F0122E4F50DF50EE50C701CE4
:1014FB007F01FEFDFC121891050EE50E7002050D25
:0E150B00C39464E50D940040037F02227F002C
:0115190022AF
:101575002092177F027E007D007C00121891209238
:10158500069000147401F03092FD2093147F0A7EBA
:10159500007D007C001218912093069000147402BF
:1015A500F02094147F0A7E007D007C0012189120A3
:1015B50094069000147403F0900014E06007900006
:0B15C5001A7401F022E490001AF022DA
:1006F30090001AE0700302083DE4F0900014E02437
:10070300FE601F1470030207B52402600302083D54
:10071300900017E004F0E06406600302083DF00275
:10072300083D900017E0FFB40112900019E0B402F5
:10073300057401F08006900019E004F0EFB4021292
:10074300900018E0B402057401F08006900018E0F0
:1007530004F0900017E0B4031190001CE0B46304AC
:10076300E4F0800690001CE004F0900017E0FFB472
:10077300041190001BE0B46304E4F0800690001BB6
:10078300E004F0EF6405600302083D900015E0B457
:10079300010FA3E0B48F0AE4900015F0A3F0020860
:1007A3003D900016E004F07006900015E004F0029E
:1007B300083D900017E0FFB40112900019E0B40166
:1007C300057402F08006900019E014F0EFB40212F1
:1007D300900018E0B401057402F08006900018E060
:1007E30014F0900017E0B4031190001CE07005743E
:1007F30063F0800690001CE014F0900017E0FFB453
:10080300041190001BE070057463F0800690001BD8
:10081300E014F0EFB40523900015E07002A3E0703C
:100823000B90001504F0A3748FF0800E900016E077
:1008330024FFF0900015E034FFF0E4900014F02260
:101900002092307F017E007D007C00121891209291
:10191000223092FD1219869000257401F01218CA27
:10192000E4900010F0900013F0C2FDC2FEC2FF90E0
:04193000000FF02292
:100003000202ABE86480F8E933E83360110460F07E
:10001300ED33EC337009E8FCE9FDEAFEEBFF220463
:1000230060DED3EB9FEA9EE99DE8C2E78CF0C2F75E
:1000330095F0400CE8CCF8E9CDF9EACEFAEBCFFB2A
:1000430012027685D0F05804700320D5B3E804700B
:10005300075002B2D50202B592D5EC0460F7E4CCA6
:10006300C0E0C398F8603B94186008400DD0E0FBF3
:1000730002028DE4FBFAC9FC8028E830E406E4C9F7
:10008300FBE4CAFCE830E305E4C9CACBFCE8540747
:100093006010F8C3E913F9EA13FAEB13FBEC13FC52
:1000A300D8F130F52FC3E49CFCEF9BFFEE9AFEEDF5
:1000B30099FDD0E0FBEF4E4D4C701222DB030202A0
:1000C300B2EC2CFCEF33FFEE33FEED33FDED30E706
:1000D300EB02028DEF2BFFEE3AFEED39FDD0E0FB94
:1000E30050130BBB00030202B5ED13FDEE13FEEF3D
:0800F30013FFEC13FC02028D67
:1000FB00EC4D6011E8497017ED33EC3304600DE4FF
:10010B00FCFFFEFD22E933E8330470F80202AB1268
:10011B00027658046009E4CC248150062850090269
:10012B0002B52840030202B2C0E0EB4A7044B9802A
:10013B0006D0E0FB0202A1EF4E701CBD8008EBFF66
:10014B00EAFEE9FD80EBE98DF0A4FEE5F00201E4A7
:10015B00E9CDF9EAFEEBFFEF89F0A4FCE5F0CE89DF
:10016B00F0A42EFFE435F0CD89F0A42DFEE435F09C
:10017B008067EF4E7005BD80D780C3EF8BF0A4ACCA
:10018B00F0EE8BF0A42CFCE435F0F8EF8AF0A42C05
:10019B00E5F038FCE433CB8DF0A42CFCE5F03BF818
:1001AB00EE8AF0A42CFCE5F038F8E433CF89F0A408
:1001BB002CFCE5F038CF3400CE89F0A42FFFE5F00E
:1001CB003EFEE433C98DF0A42EFEE5F039CD8AF066
:1001DB00A42FFFE5F03EFEE43DFD33D0E0FB5007DE
:1001EB000BBB000F0202B5EC2CFCEF33FFEE33FE22
:0601FB00ED33FD02028D50
:1002010075F020800E75F010800575F0087D007E78
:10021100007F003392D530D503120327EC33401011
:10022100EF33FFEE33FEED33FDEC33FCD5F0ED2281
:0E023100E5F0247EA2D513CC92E7CDCEFF22BD
:10023F00EDD2E7CD33EC3392D524814006E4FFFEB7
:10024F00FDFC22FCE4CFCECDCC24E0501174FF8016
:10025F00EDC3CC13CCCD13CDCE13CECF13CF0470B3
:07026F00F030D5DE02032789
:10027600E9D2E7C933E833F892D5EDD2E7CD33ECCE
:0702860033FC5002B2D52247
:10028D00EC30E7100FBF000C0EBE00080DBD0004D2
:10029D000BEB6014A2D5EB13FCED92E7FD2274FF7E
:1002AD00FCFDFEFF22E480F8A2D574FF13FC7D80D7
:0302BD00E480EFEB
:030000000212DF0A
:0C12DF00787FE4F6D8FD75817C021326B0
:1002C000EF8DF0A4A8F0CF8CF0A428CE8DF0A42E52
:0202D000FE220C
:1002D200BC000BBE0029EF8DF084FFADF022E4CC10
:1002E200F875F008EF2FFFEE33FEEC33FCEE9DECD9
:1002F200984005FCEE9DFE0FD5F0E9E4CEFD22ED1F
:10030200F8F5F0EE8420D21CFEADF075F008EF2F68
:10031200FFED33FD4007985006D5F0F222C398FD59
:050322000FD5F0EA22F6
:0E032700C3E49FFFE49EFEE49DFDE49CFC22E7
:10033500EB9FF5F0EA9E42F0E99D42F0EC6480C83F
:0603450064809845F022DF
:10034B00EB9FF5F0EA9E42F0E99D42F0E89C45F008
:01035B00227F
:10035C00D083D082F8E4937012740193700DA3A330
:10036C0093F8740193F5828883E473740293686044
:06037C00EFA3A3A380DF44
:1012EB00021A0AE493A3F8E493A34003F68001F2F5
:1012FB0008DFF48029E493A3F85407240CC8C33304
:10130B00C4540F4420C8834004F456800146F6DFD2
:10131B00E4800B010204081020408090151AE47E33
:10132B00019360BCA3FF543F30E509541FFEE493C7
:10133B00A360010ECF54C025E060A840B8E493A38E
:10134B00FAE493A3F8E493A3C8C582C8CAC583CAB9
:10135B00F0A3C8C582C8CAC583CADFE9DEE780BE71
:011574000076
:00000001FF
